{
  "_format": "hh-sol-artifact-1",
  "contractName": "MultiSigWallet",
  "sourceName": "contracts/MultiSigWallet.sol",
  "abi": [
    {
      "inputs": [
        {
          "internalType": "address[]",
          "name": "_signers",
          "type": "address[]"
        }
      ],
      "stateMutability": "nonpayable",
      "type": "constructor"
    },
    {
      "anonymous": false,
      "inputs": [
        {
          "indexed": true,
          "internalType": "address",
          "name": "_revoke",
          "type": "address"
        },
        {
          "indexed": true,
          "internalType": "uint256",
          "name": "_txId",
          "type": "uint256"
        }
      ],
      "name": "ApprovalRevoked",
      "type": "event"
    },
    {
      "anonymous": false,
      "inputs": [
        {
          "indexed": true,
          "internalType": "address",
          "name": "_from",
          "type": "address"
        },
        {
          "indexed": true,
          "internalType": "uint256",
          "name": "_amount",
          "type": "uint256"
        }
      ],
      "name": "DepositSuccessful",
      "type": "event"
    },
    {
      "anonymous": false,
      "inputs": [
        {
          "indexed": true,
          "internalType": "address",
          "name": "_newSigner",
          "type": "address"
        }
      ],
      "name": "SignerAdded",
      "type": "event"
    },
    {
      "anonymous": false,
      "inputs": [
        {
          "indexed": true,
          "internalType": "address",
          "name": "_removedSigner",
          "type": "address"
        }
      ],
      "name": "SignerRemoved",
      "type": "event"
    },
    {
      "anonymous": false,
      "inputs": [
        {
          "indexed": true,
          "internalType": "uint256",
          "name": "_txId",
          "type": "uint256"
        },
        {
          "indexed": true,
          "internalType": "address",
          "name": "_signer",
          "type": "address"
        }
      ],
      "name": "TransactionApproved",
      "type": "event"
    },
    {
      "anonymous": false,
      "inputs": [
        {
          "indexed": true,
          "internalType": "address",
          "name": "_signer",
          "type": "address"
        },
        {
          "indexed": false,
          "internalType": "uint256",
          "name": "_txId",
          "type": "uint256"
        },
        {
          "indexed": true,
          "internalType": "address",
          "name": "_to",
          "type": "address"
        },
        {
          "indexed": false,
          "internalType": "uint256",
          "name": "_value",
          "type": "uint256"
        },
        {
          "indexed": false,
          "internalType": "bytes",
          "name": "_data",
          "type": "bytes"
        }
      ],
      "name": "TransactionSentForApproval",
      "type": "event"
    },
    {
      "inputs": [
        {
          "internalType": "uint256",
          "name": "_txId",
          "type": "uint256"
        }
      ],
      "name": "executeTransaction",
      "outputs": [],
      "stateMutability": "payable",
      "type": "function"
    },
    {
      "inputs": [
        {
          "internalType": "uint256",
          "name": "_txId",
          "type": "uint256"
        }
      ],
      "name": "getTransactionIndex",
      "outputs": [
        {
          "internalType": "uint256",
          "name": "_transactionIndex",
          "type": "uint256"
        }
      ],
      "stateMutability": "view",
      "type": "function"
    },
    {
      "inputs": [],
      "name": "idCount",
      "outputs": [
        {
          "internalType": "uint256",
          "name": "",
          "type": "uint256"
        }
      ],
      "stateMutability": "view",
      "type": "function"
    },
    {
      "inputs": [
        {
          "internalType": "address payable",
          "name": "_to",
          "type": "address"
        },
        {
          "internalType": "uint256",
          "name": "_amount",
          "type": "uint256"
        },
        {
          "internalType": "bytes",
          "name": "_callData",
          "type": "bytes"
        }
      ],
      "name": "initiateTransaction",
      "outputs": [],
      "stateMutability": "nonpayable",
      "type": "function"
    },
    {
      "inputs": [
        {
          "internalType": "uint256",
          "name": "_txId",
          "type": "uint256"
        }
      ],
      "name": "signTransaction",
      "outputs": [],
      "stateMutability": "nonpayable",
      "type": "function"
    },
    {
      "inputs": [
        {
          "internalType": "uint256",
          "name": "",
          "type": "uint256"
        }
      ],
      "name": "signers",
      "outputs": [
        {
          "internalType": "address",
          "name": "",
          "type": "address"
        }
      ],
      "stateMutability": "view",
      "type": "function"
    },
    {
      "inputs": [
        {
          "internalType": "uint256",
          "name": "",
          "type": "uint256"
        }
      ],
      "name": "transactions",
      "outputs": [
        {
          "internalType": "address payable",
          "name": "to",
          "type": "address"
        },
        {
          "internalType": "uint256",
          "name": "value",
          "type": "uint256"
        },
        {
          "internalType": "bytes",
          "name": "data",
          "type": "bytes"
        },
        {
          "internalType": "bool",
          "name": "execute",
          "type": "bool"
        },
        {
          "internalType": "uint256",
          "name": "confirmations",
          "type": "uint256"
        },
        {
          "internalType": "uint256",
          "name": "id",
          "type": "uint256"
        }
      ],
      "stateMutability": "view",
      "type": "function"
    },
    {
      "stateMutability": "payable",
      "type": "receive"
    }
  ],
  "bytecode": "0x60806040523480156200001157600080fd5b5060405162001c3c38038062001c3c8339818101604052810190620000379190620004c7565b60008151116200007e576040517f08c379a0000000000000000000000000000000000000000000000000000000008152600401620000759062000579565b60405180910390fd5b60005b8151811015620002d157600073ffffffffffffffffffffffffffffffffffffffff16828281518110620000b957620000b86200059b565b5b602002602001015173ffffffffffffffffffffffffffffffffffffffff16036200011a576040517f08c379a000000000000000000000000000000000000000000000000000000000815260040162000111906200061a565b60405180910390fd5b600160008383815181106200013457620001336200059b565b5b602002602001015173ffffffffffffffffffffffffffffffffffffffff1673ffffffffffffffffffffffffffffffffffffffff16815260200190815260200160002060009054906101000a900460ff1615620001c7576040517f08c379a0000000000000000000000000000000000000000000000000000000008152600401620001be906200068c565b60405180910390fd5b6003828281518110620001df57620001de6200059b565b5b60200260200101519080600181540180825580915050600190039060005260206000200160009091909190916101000a81548173ffffffffffffffffffffffffffffffffffffffff021916908373ffffffffffffffffffffffffffffffffffffffff16021790555060018060008484815181106200026257620002616200059b565b5b602002602001015173ffffffffffffffffffffffffffffffffffffffff1673ffffffffffffffffffffffffffffffffffffffff16815260200190815260200160002060006101000a81548160ff0219169083151502179055508080620002c890620006e7565b91505062000081565b505062000734565b6000604051905090565b600080fd5b600080fd5b600080fd5b6000601f19601f8301169050919050565b7f4e487b7100000000000000000000000000000000000000000000000000000000600052604160045260246000fd5b6200033d82620002f2565b810181811067ffffffffffffffff821117156200035f576200035e62000303565b5b80604052505050565b600062000374620002d9565b905062000382828262000332565b919050565b600067ffffffffffffffff821115620003a557620003a462000303565b5b602082029050602081019050919050565b600080fd5b600073ffffffffffffffffffffffffffffffffffffffff82169050919050565b6000620003e882620003bb565b9050919050565b620003fa81620003db565b81146200040657600080fd5b50565b6000815190506200041a81620003ef565b92915050565b600062000437620004318462000387565b62000368565b905080838252602082019050602084028301858111156200045d576200045c620003b6565b5b835b818110156200048a578062000475888262000409565b8452602084019350506020810190506200045f565b5050509392505050565b600082601f830112620004ac57620004ab620002ed565b5b8151620004be84826020860162000420565b91505092915050565b600060208284031215620004e057620004df620002e3565b5b600082015167ffffffffffffffff811115620005015762000500620002e8565b5b6200050f8482850162000494565b91505092915050565b600082825260208201905092915050565b7f4e6f205369676e65727300000000000000000000000000000000000000000000600082015250565b600062000561600a8362000518565b91506200056e8262000529565b602082019050919050565b60006020820190508181036000830152620005948162000552565b9050919050565b7f4e487b7100000000000000000000000000000000000000000000000000000000600052603260045260246000fd5b7f5a65726f2041646472657373205369676e657200000000000000000000000000600082015250565b60006200060260138362000518565b91506200060f82620005ca565b602082019050919050565b600060208201905081810360008301526200063581620005f3565b9050919050565b7f4475706c6963617465205369676e657273204e6f7420416c6c6f776564000000600082015250565b600062000674601d8362000518565b915062000681826200063c565b602082019050919050565b60006020820190508181036000830152620006a78162000665565b9050919050565b7f4e487b7100000000000000000000000000000000000000000000000000000000600052601160045260246000fd5b6000819050919050565b6000620006f482620006dd565b91507fffffffffffffffffffffffffffffffffffffffffffffffffffffffffffffffff8203620007295762000728620006ae565b5b600182019050919050565b6114f880620007446000396000f3fe6080604052600436106100745760003560e01c80639ace38c21161004e5780639ace38c214610153578063b00668a714610195578063e6e46238146101d2578063ee22610b146101fd576100bf565b80632079fb9a146100c4578063263a6d79146101015780635d9ec2101461012a576100bf565b366100bf57343373ffffffffffffffffffffffffffffffffffffffff167fb3ef81558ed1a50072a492984535a009da8b129c749500b387f1e5f4886bdde560405160405180910390a3005b600080fd5b3480156100d057600080fd5b506100eb60048036038101906100e69190610b18565b610219565b6040516100f89190610b86565b60405180910390f35b34801561010d57600080fd5b5061012860048036038101906101239190610c44565b610258565b005b34801561013657600080fd5b50610151600480360381019061014c9190610b18565b6103cd565b005b34801561015f57600080fd5b5061017a60048036038101906101759190610b18565b6105fa565b60405161018c96959493929190610d81565b60405180910390f35b3480156101a157600080fd5b506101bc60048036038101906101b79190610b18565b6106fb565b6040516101c99190610de9565b60405180910390f35b3480156101de57600080fd5b506101e76107a6565b6040516101f49190610de9565b60405180910390f35b61021760048036038101906102129190610b18565b6107ac565b005b6003818154811061022957600080fd5b906000526020600020016000915054906101000a900473ffffffffffffffffffffffffffffffffffffffff1681565b60006040518060c001604052808673ffffffffffffffffffffffffffffffffffffffff16815260200185815260200184848080601f016020809104026020016040519081016040528093929190818152602001838380828437600081840152601f19601f82011690508083019250505050505050815260200160001515815260200160008152602001600560008154809291906102f490610e33565b919050558152509050600481908060018154018082558091505060019003906000526020600020906006020160009091909190915060008201518160000160006101000a81548173ffffffffffffffffffffffffffffffffffffffff021916908373ffffffffffffffffffffffffffffffffffffffff16021790555060208201518160010155604082015181600201908161038f91906110b6565b5060608201518160030160006101000a81548160ff0219169083151502179055506080820151816004015560a0820151816005015550505050505050565b6103d681610a1c565b610415576040517f08c379a000000000000000000000000000000000000000000000000000000000815260040161040c9061120b565b60405180910390fd5b600160003373ffffffffffffffffffffffffffffffffffffffff1673ffffffffffffffffffffffffffffffffffffffff16815260200190815260200160002060009054906101000a900460ff166104a1576040517f08c379a00000000000000000000000000000000000000000000000000000000081526004016104989061129d565b60405180910390fd5b60006104ac826106fb565b905060006002600084815260200190815260200160002060003373ffffffffffffffffffffffffffffffffffffffff1673ffffffffffffffffffffffffffffffffffffffff16815260200190815260200160002060009054906101000a900460ff1690508015610551576040517f08c379a00000000000000000000000000000000000000000000000000000000081526004016105489061132f565b60405180910390fd5b60016002600085815260200190815260200160002060003373ffffffffffffffffffffffffffffffffffffffff1673ffffffffffffffffffffffffffffffffffffffff16815260200190815260200160002060006101000a81548160ff021916908315150217905550600482815481106105ce576105cd61134f565b5b906000526020600020906006020160040160008154809291906105f090610e33565b9190505550505050565b6004818154811061060a57600080fd5b90600052602060002090600602016000915090508060000160009054906101000a900473ffffffffffffffffffffffffffffffffffffffff169080600101549080600201805461065990610ed9565b80601f016020809104026020016040519081016040528092919081815260200182805461068590610ed9565b80156106d25780601f106106a7576101008083540402835291602001916106d2565b820191906000526020600020905b8154815290600101906020018083116106b557829003601f168201915b5050505050908060030160009054906101000a900460ff16908060040154908060050154905086565b600061070682610a1c565b610745576040517f08c379a000000000000000000000000000000000000000000000000000000000815260040161073c9061120b565b60405180910390fd5b60005b6004805490508110156107a057826004828154811061076a5761076961134f565b5b9060005260206000209060060201600501540361078d5780915060048054905090505b808061079890610e33565b915050610748565b50919050565b60055481565b6107b581610a1c565b6107f4576040517f08c379a00000000000000000000000000000000000000000000000000000000081526004016107eb9061120b565b60405180910390fd5b60006107ff826106fb565b90506003805490506004828154811061081b5761081a61134f565b5b9060005260206000209060060201600401541461086d576040517f08c379a0000000000000000000000000000000000000000000000000000000008152600401610864906113f0565b60405180910390fd5b6000600482815481106108835761088261134f565b5b90600052602060002090600602016001015490506000600483815481106108ad576108ac61134f565b5b906000526020600020906006020160000160009054906101000a900473ffffffffffffffffffffffffffffffffffffffff16905060008173ffffffffffffffffffffffffffffffffffffffff168360405161090790611441565b60006040518083038185875af1925050503d8060008114610944576040519150601f19603f3d011682016040523d82523d6000602084013e610949565b606091505b505090508061098d576040517f08c379a0000000000000000000000000000000000000000000000000000000008152600401610984906114a2565b60405180910390fd5b600484815481106109a1576109a061134f565b5b9060005260206000209060060201600080820160006101000a81549073ffffffffffffffffffffffffffffffffffffffff021916905560018201600090556002820160006109ef9190610a7b565b6003820160006101000a81549060ff02191690556004820160009055600582016000905550505050505050565b600080600090505b600480549050811015610a75578260048281548110610a4657610a4561134f565b5b90600052602060002090600602016005015403610a6257600191505b8080610a6d90610e33565b915050610a24565b50919050565b508054610a8790610ed9565b6000825580601f10610a995750610ab8565b601f016020900490600052602060002090810190610ab79190610abb565b5b50565b5b80821115610ad4576000816000905550600101610abc565b5090565b600080fd5b600080fd5b6000819050919050565b610af581610ae2565b8114610b0057600080fd5b50565b600081359050610b1281610aec565b92915050565b600060208284031215610b2e57610b2d610ad8565b5b6000610b3c84828501610b03565b91505092915050565b600073ffffffffffffffffffffffffffffffffffffffff82169050919050565b6000610b7082610b45565b9050919050565b610b8081610b65565b82525050565b6000602082019050610b9b6000830184610b77565b92915050565b6000610bac82610b45565b9050919050565b610bbc81610ba1565b8114610bc757600080fd5b50565b600081359050610bd981610bb3565b92915050565b600080fd5b600080fd5b600080fd5b60008083601f840112610c0457610c03610bdf565b5b8235905067ffffffffffffffff811115610c2157610c20610be4565b5b602083019150836001820283011115610c3d57610c3c610be9565b5b9250929050565b60008060008060608587031215610c5e57610c5d610ad8565b5b6000610c6c87828801610bca565b9450506020610c7d87828801610b03565b935050604085013567ffffffffffffffff811115610c9e57610c9d610add565b5b610caa87828801610bee565b925092505092959194509250565b610cc181610ba1565b82525050565b610cd081610ae2565b82525050565b600081519050919050565b600082825260208201905092915050565b60005b83811015610d10578082015181840152602081019050610cf5565b60008484015250505050565b6000601f19601f8301169050919050565b6000610d3882610cd6565b610d428185610ce1565b9350610d52818560208601610cf2565b610d5b81610d1c565b840191505092915050565b60008115159050919050565b610d7b81610d66565b82525050565b600060c082019050610d966000830189610cb8565b610da36020830188610cc7565b8181036040830152610db58187610d2d565b9050610dc46060830186610d72565b610dd16080830185610cc7565b610dde60a0830184610cc7565b979650505050505050565b6000602082019050610dfe6000830184610cc7565b92915050565b7f4e487b7100000000000000000000000000000000000000000000000000000000600052601160045260246000fd5b6000610e3e82610ae2565b91507fffffffffffffffffffffffffffffffffffffffffffffffffffffffffffffffff8203610e7057610e6f610e04565b5b600182019050919050565b7f4e487b7100000000000000000000000000000000000000000000000000000000600052604160045260246000fd5b7f4e487b7100000000000000000000000000000000000000000000000000000000600052602260045260246000fd5b60006002820490506001821680610ef157607f821691505b602082108103610f0457610f03610eaa565b5b50919050565b60008190508160005260206000209050919050565b60006020601f8301049050919050565b600082821b905092915050565b600060088302610f6c7fffffffffffffffffffffffffffffffffffffffffffffffffffffffffffffffff82610f2f565b610f768683610f2f565b95508019841693508086168417925050509392505050565b6000819050919050565b6000610fb3610fae610fa984610ae2565b610f8e565b610ae2565b9050919050565b6000819050919050565b610fcd83610f98565b610fe1610fd982610fba565b848454610f3c565b825550505050565b600090565b610ff6610fe9565b611001818484610fc4565b505050565b5b818110156110255761101a600082610fee565b600181019050611007565b5050565b601f82111561106a5761103b81610f0a565b61104484610f1f565b81016020851015611053578190505b61106761105f85610f1f565b830182611006565b50505b505050565b600082821c905092915050565b600061108d6000198460080261106f565b1980831691505092915050565b60006110a6838361107c565b9150826002028217905092915050565b6110bf82610cd6565b67ffffffffffffffff8111156110d8576110d7610e7b565b5b6110e28254610ed9565b6110ed828285611029565b600060209050601f831160018114611120576000841561110e578287015190505b611118858261109a565b865550611180565b601f19841661112e86610f0a565b60005b8281101561115657848901518255600182019150602085019450602081019050611131565b86831015611173578489015161116f601f89168261107c565b8355505b6001600288020188555050505b505050505050565b600082825260208201905092915050565b7f54686973207472616e73616374696f6e20494420646f6573206e6f742065786960008201527f7374206f722068617320616c7265616479206265656e20657865637574656400602082015250565b60006111f5603f83611188565b915061120082611199565b604082019050919050565b60006020820190508181036000830152611224816111e8565b9050919050565b7f41646472657373206e6f74207065726d697474656420746f207369676e20747260008201527f616e73616374696f6e0000000000000000000000000000000000000000000000602082015250565b6000611287602983611188565b91506112928261122b565b604082019050919050565b600060208201905081810360008301526112b68161127a565b9050919050565b7f5369676e65722068617320616c7265616479207369676e65642074686973207460008201527f72616e61736374696f6e00000000000000000000000000000000000000000000602082015250565b6000611319602a83611188565b9150611324826112bd565b604082019050919050565b600060208201905081810360008301526113488161130c565b9050919050565b7f4e487b7100000000000000000000000000000000000000000000000000000000600052603260045260246000fd5b7f54686973207472616e73616374696f6e2068617320616e20696e73756666696360008201527f69656e7420616d6f756e74206f66207369676e65727300000000000000000000602082015250565b60006113da603683611188565b91506113e58261137e565b604082019050919050565b60006020820190508181036000830152611409816113cd565b9050919050565b600081905092915050565b50565b600061142b600083611410565b91506114368261141b565b600082019050919050565b600061144c8261141e565b9150819050919050565b7f5472616e73666572206661696c65640000000000000000000000000000000000600082015250565b600061148c600f83611188565b915061149782611456565b602082019050919050565b600060208201905081810360008301526114bb8161147f565b905091905056fea2646970667358221220b031f726cb93cc2fa994a3b8e2c8f9b6b7895d3b17e492654c9a2fce4c14edda64736f6c63430008110033",
  "linkReferences": {},
  "deployedLinkReferences": {}
}